:020000040000FA
:10000000400300200D03000015030000170300004B
:10001000190300001B0300001D0300000000000086
:100020000000000000000000000000001F030000AE
:10003000210300000000000023030000250300004E
:10004000A9050000B3050000BD050000C7050000BC
:10005000D105000031030000330300003503000028
:1000600037030000390300003B0300003D0300009C
:100070003F0300004103000043030000450300006C
:1000800047030000490300004B0300004D0300003C
:100090004F0300005103000053030000550300000C
:1000A00057030000590300005B0300005D030000DC
:1000B0005F03000061030000DB0500006503000032
:1000C00067030000690300006B0300006D0300007C
:1000D0006F0300007103000073030000750300004C
:1000E0007703000079030000000000007B0300009C
:1000F0007D0300007F0300008103000083030000F4
:100100008503000087030000890300008B030000C3
:1001100000000000000000008D0300008F030000BD
:100120009103000093030000950300009703000073
:10013000990300009B0300009D0300009F03000043
:1001400000000000000000000000000000000000AF
:10015000A1030000A3030000A5030000A703000003
:10016000000000000000000000000000000000008F
:10017000000000000000000000000000000000007F
:10018000000000000000000000000000000000006F
:10019000000000000000000000000000000000005F
:1001A000000000000000000000000000000000004F
:1001B000A9030000AB030000AD030000AF03000083
:1001C000B1030000B3030000B5030000B703000053
:1001D000B9030000BB030000BD030000BF03000023
:1001E000C1030000C3030000C503000000000000BD
:1001F00000000000C7030000C9030000CB0300009B
:10020000CD030000CF03000000000000000000004C
:10021000D1030000D3030000D5030000D703000082
:10022000D9030000DB030000DD030000DF03000052
:10023000E1030000E3030000E5030000E703000022
:10024000E9030000EB030000ED030000EF030000F2
:10025000F1030000F3030000F5030000F7030000C2
:10026000F9030000FB030000FD03000000F002F8AA
:1002700000F03CF80AA090E8000C82448344AAF104
:100280000107DA4501D100F031F8AFF2090EBAE802
:100290000F0013F0010F18BFFB1A43F001031847BA
:1002A0006C1200008C120000103A24BF78C878C18C
:1002B000FAD8520724BF30C830C144BF04680C606C
:1002C000704700000023002400250026103A28BFB4
:1002D00078C1FBD8520728BF30C148BF0B607047B8
:1002E0001FB501F00DF91FBD10B510BD00F00FF9DD
:1002F0001146FFF7F5FF01F0D5F800F02DF903B432
:10030000FFF7F2FF03BC00F035F900003F488047DB
:100310003F480047FEE7FEE7FEE7FEE7FEE7FEE7B1
:10032000FEE7FEE7FEE7FEE7FEE7FEE7FEE7FEE7A5
:10033000FEE7FEE7FEE7FEE7FEE7FEE7FEE7FEE795
:10034000FEE7FEE7FEE7FEE7FEE7FEE7FEE7FEE785
:10035000FEE7FEE7FEE7FEE7FEE7FEE7FEE7FEE775
:10036000FEE7FEE7FEE7FEE7FEE7FEE7FEE7FEE765
:10037000FEE7FEE7FEE7FEE7FEE7FEE7FEE7FEE755
:10038000FEE7FEE7FEE7FEE7FEE7FEE7FEE7FEE745
:10039000FEE7FEE7FEE7FEE7FEE7FEE7FEE7FEE735
:1003A000FEE7FEE7FEE7FEE7FEE7FEE7FEE7FEE725
:1003B000FEE7FEE7FEE7FEE7FEE7FEE7FEE7FEE715
:1003C000FEE7FEE7FEE7FEE7FEE7FEE7FEE7FEE705
:1003D000FEE7FEE7FEE7FEE7FEE7FEE7FEE7FEE7F5
:1003E000FEE7FEE7FEE7FEE7FEE7FEE7FEE7FEE7E5
:1003F000FEE7FEE7FEE7FEE7FEE7FEE7FEE70000BA
:1004000004480549034A054B70470000E505000014
:100410006D02000040010020400300204001002048
:100420004FF0000200B5134694469646203922BF8D
:10043000A0E80C50A0E80C50B1F12001BFF4F7AFD8
:10044000090728BFA0E80C5048BF0CC05DF804EBBA
:10045000890028BF40F8042B08BF704748BF20F828
:10046000022B11F0804F18BF00F8012B704710B518
:10047000044610F0030F08BF11F0030F40F0158081
:100480004FF0013E121FC0F20E8051F8043BA3EB67
:100490000E0C2CEA030C1CEACE1C08BF40F8043BEF
:1004A000F0D0A1F1040102F10402521E08DB11F8A0
:1004B000013B002B00F8013BF7D1114600F005F895
:1004C000204610BD7047704770474FF00002042966
:1004D000C0F0128010F0030C3FF4A4AFCCF1040C78
:1004E000BCF1020F18BF00F8012BA8BF20F8022BA7
:1004F000A1EB0C01FFF796BF5FEAC17C24BF00F8B7
:10050000012B00F8012B48BF00F8012B70477546FE
:1005100000F02CF8AE4605006946534620F007006F
:10052000854618B020B5FFF76BFFBDE820404FF0BF
:1005300000064FF000074FF000084FF0000B21F0CD
:100540000701AC46ACE8C009ACE8C009ACE8C0099A
:10055000ACE8C0098D46704710B50446AFF3008083
:100560002046BDE81040FFF7CABE000000487047B3
:10057000E000002001491820ABBEFEE72600020083
:10058000704730B5C1B004460D464FF482716846DD
:10059000FFF746FFFF22214601A8FFF768FF0095FD
:1005A00001BE012041B030BD10B5002000F008FDB3
:1005B00010BD10B5012000F003FD10BD10B50220E4
:1005C00000F0FEFC10BD10B5032000F0F9FC10BDDA
:1005D00010B5042000F0F4FC10BD10B5052000F0AB
:1005E000EFFC10BD1B49096841F47001194A116004
:1005F00019491A4A11671A4911661A4911661A49A6
:100600001167002000E0401CB0F57A7FFBD317494A
:10061000124A116616491167002000E0401CB0F52F
:100620007A7FFBD313490D4A116600BF0B49096D50
:1006300001F040014029F9D10F49084A11664FF0F5
:10064000C0711167002000E0401C42F21071884226
:10065000FAD3704788ED00E01028800700E00F40D3
:10066000D13A8E07422D9E0100288001420D9E0145
:1006700000088001420DDE014205DE0100280DDB8D
:1006800000BF00BF00F01F0201219140420992000B
:1006900002F1E022C2F8001100BF00BF7047000065
:1006A00006480078042803D100200449087004E0BB
:1006B00002480078401C014908707047090000207A
:1006C00010B500BF204800F0DDF808B9012000E0B7
:1006D0000020012801D1002003E034211BA0FFF7F6
:1006E00050FF0028EED100BF1E4A1021052000F067
:1006F00065F808B9012000E00020012801D10020A0
:1007000003E0352111A0FFF73CFF0028ECD100BF2A
:1007100000F0E3FE08B9012000E00020012801D12B
:10072000002003E0362109A0FFF72BFF0028EFD1BE
:100730000D49087002204870042088700820C87095
:100740000E20087110BD0000000000202E2E5C2E2F
:100750002E5C4150505C617070315F7267622E6335
:1007600000000000A10600000400002010B500BF3A
:100770000A490B4A1278885C00F09AFE08B90120F9
:1007800000E00020012801D1002003E0442105A061
:10079000FFF7F7FE0028EBD110BD00000400002099
:1007A000090000202E2E5C2E2E5C4150505C6170A2
:1007B00070315F7267622E63000000002DE9FC411A
:1007C00004460D46164600270020009001900EB109
:1007D000012000E00020012801D1002003E0642175
:1007E0001FA0FFF7CEFE002836D1052C01DC01202A
:1007F00000E00020012801D1002003E0672118A0BB
:10080000FFF7BFFE30BB102D14D008DC012D0DD03A
:10081000022D0CD0042D0BD0082D14D109E0202D71
:1008200009D0402D08D0802D0DD106E000BF00BFBB
:1008300000BF00BF00BF00BF00BF324629462046B0
:1008400000F0A2F805E0792105A0FFF79AFE07461F
:1008500000BF02E0012700E002273846BDE8FC8126
:100860002E2E5C2E2E5C48414C5C425554544F4E0B
:100870005C627574746F6E5F70726F6772616D2EFB
:10088000630000007CB50446002500200090019024
:100890000CB1012000E00020012801D1002003E07C
:1008A000162130A0FFF76DFE002857D120780528CB
:1008B00001DC012000E00020012801D1002003E03C
:1008C000192128A0FFF75DFE002845D1607808B106
:1008D000012000E00020012801D1002003E01A21BE
:1008E00020A0FFF74EFE002836D1A078022801DCB8
:1008F000012000E00020012801D1002003E01B219D
:1009000018A0FFF73EFE38BBE078032801DC012089
:1009100000E00020012801D1002003E01C2111A0EB
:10092000FFF72FFEC0B920788DF8000060788DF8B1
:10093000010000208DF802008DF803008DF80400FE
:10094000A0788DF80500E0788DF806000021684653
:1009500000F09AF8054302E0012500E00225284650
:100960007CBD00002E2E5C2E2E5C48414C5C425516
:1009700054544F4E5C627574746F6E5F70726F6723
:1009800072616D2E630000002DE9F04104460E46B1
:10099000154600270DB1012000E00020012801D1FB
:1009A000002004E040F225212EA0FFF7EAFD0028F8
:1009B00054D1052C01DC012000E00020012801D1E8
:1009C000002004E04FF40A7126A0FFF7DAFD0028AA
:1009D00042D1102E24D008DC012E0DD0022E10D0D2
:1009E000042E13D0082E2FD115E0202E1DD0402E1E
:1009F00020D0802E28D122E0224800EB4410056050
:100A000029E0204800EB4410456024E01D4800EB3D
:100A1000441085601FE01B4800EB4410C5601AE0DD
:100A2000184800EB4410056115E0164800EB44102F
:100A3000456110E0134800EB441085610BE011485C
:100A400000EB4410C56106E040F2562105A0FFF717
:100A500098FD074600BF02E0012700E00227384664
:100A6000BDE8F0812E2E5C2E2E5C4D43414C5C4740
:100A700050494F5C6770696F5F70726F6772616D2C
:100A80002E6300000C0000202DE9F04105460E46C3
:100A900000270DB1012000E00020012801D1002035
:100AA00003E01C21FDA0FFF76CFD00287ED1287813
:100AB000052801DC012000E00020012801D10020F0
:100AC00003E01F21F5A0FFF75CFD00286FD16878D7
:100AD00008B1012000E00020012801D1002003E03E
:100AE0002021EEA0FFF74DFD0028EFD1A8780228C5
:100AF00001DC012000E00020012801D1002003E0FA
:100B00002121E6A0FFF73DFD0028DFD1E87801288C
:100B100001DC012000E00020012801D1002003E0D9
:100B20002221DEA0FFF72DFD0028CFD12879032850
:100B300001DC012000E00020012801D1002003E0B9
:100B40002321D6A0FFF71DFD0028BFD16879022818
:100B500001DC012000E00020012801D1002003E099
:100B60002421CEA0FFF70DFD0028AFD1A8790328DE
:100B700001DC012000E00020012801D1002003E079
:100B80002521C6A0FFF7FDFC00289FD12C78032C5F
:100B900002DD04F11C00C4B2C84800682A780121B3
:100BA00091400843C5490860A87801E002E2FFE1EE
:100BB00020B101283BD0022857D147E04FF0402018
:100BC00000EB0430D0F82805697888434FF04021C5
:100BD00001EB0431C1F828054FF0402000EB043050
:100BE000D0F82004697888434FF0402101EB0431AC
:100BF000C1F820044FF0402000EB0430D0F81C0571
:100C0000697808434FF0402101EB0431C1F81C051D
:100C1000287800EB4000AA490844407869780843E6
:100C2000297801EB4101A64A114448701DE028785B
:100C300000EB4000A249084440786978884329784D
:100C400001EB41019E4A114448700EE0287800EB08
:100C500040009B490844407869788843297801EB33
:100C60004101974A1144487000BF00BFE878C0B303
:100C7000012856D14FF0402000EB0430D0F800049A
:100C8000697808434FF0402101EB0431C1F80004BA
:100C9000287800EB40008A49085C69780843297885
:100CA00001EB4101864A505400214FF0402000EBF7
:100CB0000432687842F820102879022802D00328EC
:100CC0001FD10FE04FF0402000EB0430D0F80405B6
:100CD000697808434FF0402101EB0431C1F8040565
:100CE0001EE01FE04FF0402000EB0430D0F8080574
:100CF000697808434FF0402101EB0431C1F8080541
:100D00000EE04FF0402000EB0430D0F80005697889
:100D100008434FF0402101EB0431C1F8000500BF4A
:100D200000BF24E14FF0402000EB0430D0F8000475
:100D3000697888434FF0402101EB0431C1F8000489
:100D40004FF0402000EB0430D0F81004697888435D
:100D50004FF0402101EB0431C1F81004287800EB7A
:100D600040005749085C69788843297801EB4101C4
:100D7000534A5054687901281ED0022839D14FF0C7
:100D8000402000EB0430D0F81005697888434FF01C
:100D9000402101EB0431C1F810054FF0402000EB79
:100DA0000430D0F81405697808434FF0402101EB76
:100DB0000431C1F8140539E04FF0402000EB043055
:100DC000D0F81405697888434FF0402101EB0431D5
:100DD000C1F814054FF0402000EB0430D0F81005A6
:100DE000697808434FF0402101EB0431C1F8100548
:100DF0001CE04FF0402000EB0430D0F81405697877
:100E000088434FF0402101EB0431C1F814054FF045
:100E1000402000EB0430D0F81005697888434FF08B
:100E2000402101EB0431C1F8100500BF00BFA879D3
:100E300098B32878052803D02878FFF71FFC02E034
:100E40001E20FFF71BFC62B64FF0402000EB043081
:100E5000D0F80404697888434FF0402101EB043155
:100E6000C1F80404A879012804D0022835D0032849
:100E70005FD14FE04FF0402000EB0430D0F8080481
:100E8000697888434FF0402101EB0431C1F8080430
:100E90004FF0402000EB043014E067E02E2E5C2E73
:100EA0002E5C4D43414C5C4750494F5C6770696F05
:100EB0005F70726F6772616D2E63000008E60F400D
:100EC000CC000020D0F80C04697808434FF0402192
:100ED00001EB0431C1F80C042BE04FF0402000EB93
:100EE0000430D0F80804697888434FF0402101EBC2
:100EF0000431C1F808044FF0402000EB0430D0F872
:100F00000C04697888434FF0402101EB0431C1F8AB
:100F10000C040EE04FF0402000EB0430D0F8080441
:100F2000697808434FF0402101EB0431C1F808040F
:100F300000BF00BF4FF0402000EB0430D0F81C048D
:100F4000697888434FF0402101EB0431C1F81C045B
:100F50004FF0402000EB0430D0F8100469780843CB
:100F60004FF0402101EB0431C1F8100400BF00BF75
:100F7000012E0ED1287800EB4000104908448078FB
:100F800069780843297801EB41010C4A11448870C3
:100F900011E0287800EB400008490844807869781F
:100FA0008843297801EB4101044A1144887002E02A
:100FB000012700E002273846BDE8F081CC00002080
:100FC0002DE9F0410546002600272C46032D02DDC1
:100FD00004F11C00C4B24FF0402000EB0430D0F804
:100FE0001804C7B2052D01DC012000E00020012813
:100FF00001D1002004E040F27B211BA0FFF7C1FAE1
:1010000080BB2DE007F0010038B34FF0402000EB2B
:101010000430D0F81C040121B14008434FF04021B6
:1010200001EB0431C1F81C04174800EB451050F8DF
:10103000260008B1012000E00020012801D1002095
:1010400004E040F2832108A0FFF79BFA28B90E497B
:1010500001EB451151F8260080477F10701CC6B285
:10106000002FCFD1BDE8F0812E2E5C2E2E5C4D439B
:10107000414C5C4750494F5C6770696F5F70726F9D
:101080006772616D2E6300000C0000202DE9F041B5
:1010900004460E4600270CB1012000E00020012884
:1010A00001D1002004E040F2311167A0FFF769FA96
:1010B000002879D12078052801DC012000E00020FB
:1010C000012801D1002004E04FF49A715EA0FFF7DF
:1010D00058FA002869D1607808B1012000E00020AA
:1010E000012801D1002004E040F2351156A0FFF79D
:1010F00048FA0028EED1A07808B9012000E00020CD
:10110000012801D1002004E04FF49B714EA0FFF7AD
:1011100038FA0028DED1E078012800D100E0002074
:10112000012801D1002004E040F2371146A0FFF76A
:1011300028FA0028CED1B6F5817F01DA012000E03F
:101140000020012801D1002004E04FF49C713EA052
:10115000FFF717FA002871D12578032D02DD05F17C
:101160001C00C5B2207800EB40003F49084480785D
:101170006178084008B9012000E00020012801D171
:10118000002004E040F245112FA0FFF7FAF90028F3
:1011900052D1207800EB40003349085C6178084068
:1011A000884203D1012002E04AE047E00020012804
:1011B00001D1002004E040F2471123A0FFF7E1F93C
:1011C00078BB207800EB40002749084440786178DC
:1011D0000840884201D1012000E00020012801D10F
:1011E000002004E040F2491117A0FFF7CAF9C0B986
:1011F000B6F5807F03D0A6F2011098B908E000216F
:101200004FF0402000EB0532607842F8201012E0E9
:10121000FF214FF0402000EB0532607842F82010AB
:1012200009E009E0F1B24FF0402000EB05326078B0
:1012300042F8201000BF04E0032702E0012700E08D
:1012400002273846BDE8F0812E2E5C2E2E5C4D43E1
:10125000414C5C4750494F5C6770696F5F70726FBB
:101260006772616D2E630000CC0000207CB50446DF
:101270000E4600250020009001900CB1012000E0F6
:101280000020012801D1002003E0622145A0FFF7E2
:1012900078F9002872D12078052801DC012000E0CF
:1012A0000020012801D1002003E065213DA0FFF7C7
:1012B00068F9002871D1607808B1012000E00020B1
:1012C000012801D1002003E0662136A0FFF759F97B
:1012D000002862D1A078012801DC012000E0002074
:1012E000012801D1002003E067212EA0FFF749F972
:1012F000002852D1B6F5817F01DA012000E00020FC
:10130000012801D1002003E0682126A0FFF739F968
:1013100098BB20788DF8000060788DF801000020DF
:101320008DF8020001208DF80300E0788DF80400AC
:1013300000208DF805008DF80600B6F5807F13D0EB
:10134000A6F2011010BBA078012806D140F20111CD
:101350006846FFF79BFE054305E04FF48071684641
:10136000FFF794FE054317E0A078012807D101029A
:101370006846FFF78BFE054307E00EE00FE040F202
:1013800001116846FFF782FE054305E031466846D5
:10139000FFF77CFE054300BF02E0012500E00225C7
:1013A00028467CBD2E2E5C2E2E5C48414C5C4C4564
:1013B000445C6C6564735F70726F6772616D2E63FD
:1013C000000000007CB5044600250020009001903C
:1013D0000CB1012000E00020012801D1002003E031
:1013E000162128A0FFF7CDF8002848D1207805283D
:1013F00001DC012000E00020012801D1002003E0F1
:10140000192120A0FFF7BDF8002836D1607808B177
:10141000012000E00020012801D1002003E01A2172
:1014200018A0FFF7AEF840BBE078022801DC0120ED
:1014300000E00020012801D1002003E01B2111A0C1
:10144000FFF79FF8C8B920788DF8000060788DF814
:10145000010000208DF8020001208DF80300E078E3
:101460008DF8040000208DF805008DF8060000219D
:101470006846FFF709FB054302E0012500E002256D
:1014800028467CBD2E2E5C2E2E5C48414C5C4C4583
:10149000445C6C6564735F70726F6772616D2E631C
:1014A00000000000FFF70CF901E0FFF75FF9FCE72F
:1014B00038B5044600250020009005208DF8000076
:1014C0000E208DF8010001208DF8020021466846AB
:1014D000FFF7CCFE0543284638BD38B50024002070
:1014E000009005208DF800000E208DF801000020EE
:1014F0008DF803006846FFF765FF0443204638BDBA
:101500004FF04070E1EE100A704700002C1500000B
:10151000000000200C000000A802000038150000A8
:101520000C00002034030000C4020000051001027A
:081530000000000000000000B3
:040000050000030DE7
:00000001FF
