:020000040000FA
:10000000980500200D0300001503000017030000F1
:10001000190300001B0300001D0300000000000086
:100020000000000000000000000000001F030000AE
:1000300021030000000000002303000099270000B6
:100040003D070000C507000051080000DD08000062
:10005000690900003103000033030000350300008C
:1000600037030000390300003B0300003D0300009C
:100070003F0300004103000043030000450300006C
:1000800047030000490300004B030000E92800007B
:10009000F528000005290000112900002129000091
:1000A0002D290000590300005B0300005D030000E0
:1000B0005F03000061030000F90900006503000010
:1000C00067030000690300006B0300003D29000086
:1000D000492900007103000073030000750300004C
:1000E0007703000079030000000000007B0300009C
:1000F0007D0300007F0300008103000083030000F4
:100100008503000087030000890300008B030000C3
:1001100000000000000000008D0300008F030000BD
:100120009103000093030000950300009703000073
:10013000990300009B0300009D0300009F03000043
:1001400000000000000000000000000000000000AF
:10015000A1030000A3030000592900006529000045
:10016000000000000000000000000000000000008F
:10017000000000000000000000000000000000007F
:10018000000000000000000000000000000000006F
:10019000000000000000000000000000000000005F
:1001A000000000000000000000000000000000004F
:1001B0007529000081290000912900009D29000077
:1001C000AD290000B9290000C9290000D529000087
:1001D000E5290000F1290000012A00000D2A000095
:1001E0001D2A0000292A0000C503000000000000AD
:1001F00000000000C7030000C9030000CB0300009B
:10020000CD030000CF03000000000000000000004C
:10021000D1030000D3030000D5030000D703000082
:10022000D9030000DB030000DD030000DF03000052
:10023000E1030000E3030000E5030000E703000022
:10024000E9030000EB030000ED030000EF030000F2
:10025000F1030000F3030000F5030000F7030000C2
:10026000F9030000FB030000FD03000000F002F8AA
:1002700000F03CF80AA090E8000C82448344AAF104
:100280000107DA4501D100F031F8AFF2090EBAE802
:100290000F0013F0010F18BFFB1A43F001031847BA
:1002A000C8290000E8290000103A24BF78C878C1A6
:1002B000FAD8520724BF30C830C144BF04680C606C
:1002C000704700000023002400250026103A28BFB4
:1002D00078C1FBD8520728BF30C148BF0B607047B8
:1002E0001FB502F080FC1FBD10B510BD00F00FF966
:1002F0001146FFF7F5FF02F055FC00F02DF903B4AD
:10030000FFF7F2FF03BC00F035F900003F488047DB
:100310003F480047FEE7FEE7FEE7FEE7FEE7FEE7B1
:10032000FEE7FEE7FEE7FEE7FEE7FEE7FEE7FEE7A5
:10033000FEE7FEE7FEE7FEE7FEE7FEE7FEE7FEE795
:10034000FEE7FEE7FEE7FEE7FEE7FEE7FEE7FEE785
:10035000FEE7FEE7FEE7FEE7FEE7FEE7FEE7FEE775
:10036000FEE7FEE7FEE7FEE7FEE7FEE7FEE7FEE765
:10037000FEE7FEE7FEE7FEE7FEE7FEE7FEE7FEE755
:10038000FEE7FEE7FEE7FEE7FEE7FEE7FEE7FEE745
:10039000FEE7FEE7FEE7FEE7FEE7FEE7FEE7FEE735
:1003A000FEE7FEE7FEE7FEE7FEE7FEE7FEE7FEE725
:1003B000FEE7FEE7FEE7FEE7FEE7FEE7FEE7FEE715
:1003C000FEE7FEE7FEE7FEE7FEE7FEE7FEE7FEE705
:1003D000FEE7FEE7FEE7FEE7FEE7FEE7FEE7FEE7F5
:1003E000FEE7FEE7FEE7FEE7FEE7FEE7FEE7FEE7E5
:1003F000FEE7FEE7FEE7FEE7FEE7FEE7FEE70000BA
:1004000004480549034A054B70470000DD270000FA
:100410006D0200009803002098050020980300203A
:100420004FF0000200B5134694469646203922BF8D
:10043000A0E80C50A0E80C50B1F12001BFF4F7AFD8
:10044000090728BFA0E80C5048BF0CC05DF804EBBA
:10045000890028BF40F8042B08BF704748BF20F828
:10046000022B11F0804F18BF00F8012B704710B518
:10047000044610F0030F08BF11F0030F40F0158081
:100480004FF0013E121FC0F20E8051F8043BA3EB67
:100490000E0C2CEA030C1CEACE1C08BF40F8043BEF
:1004A000F0D0A1F1040102F10402521E08DB11F8A0
:1004B000013B00F8013B002BF7D1114600F005F895
:1004C000204610BD7047704770474FF00002042966
:1004D000C0F0128010F0030C3FF4A4AFCCF1040C78
:1004E000BCF1020F18BF00F8012BA8BF20F8022BA7
:1004F000A1EB0C01FFF796BF5FEAC17C24BF00F8B7
:10050000012B00F8012B48BF00F8012B70477546FE
:1005100000F02CF8AE4605006946534620F007006F
:10052000854618B020B5FFF76BFFBDE820404FF0BF
:1005300000064FF000074FF000084FF0000BAC46EC
:10054000ACE8C009ACE8C009ACE8C009ACE8C00937
:1005500021F007018D46704710B50446AFF30080C7
:100560002046BDE81040FFF7CABE000000487047B3
:10057000F000002001491820ABBEFEE72600020073
:100580007047000080B582B000208DF807008DF81C
:1005900006008DF80600FFE79DF80600012830DC14
:1005A000FFE79DF8060000EB800140F2C400C2F2B4
:1005B000000000EB8100807820B1FFE701208DF87A
:1005C00007001EE09DF8060000EB800140F2C40029
:1005D000C2F2000000EB810000F0F4FA8DF8070091
:1005E0009DF8070020B1FFE701208DF8070008E023
:1005F000FFE7FFE7FFE79DF8060001308DF80600F2
:10060000CAE79DF8070002B080BD000080B584B045
:100610008DF80F00029100208DF807008DF806007C
:100620008DF80600FFE79DF80600012846DCFFE78D
:100630009DF8060000EB800140F2C400C2F2000009
:1006400000EB8100807820B1FFE701208DF80700E2
:1006500034E09DF8060000EB800140F2C400C2F2D5
:10066000000000EB8100007C9DF80F10884213D140
:10067000FFE79DF8060000EB800240F2C401C2F2E1
:10068000000101EB8200407811F82210029A01F07B
:1006900047F88DF8070011E0FFE79DF8070020B14B
:1006A000FFE701208DF8070008E0FFE7FFE7FFE71D
:1006B0009DF8060001308DF80600B4E79DF80700AC
:1006C00004B080BD80B584B08DF80F000291002089
:1006D0008DF807009DF80F00012811DCFFE79DF859
:1006E0000F0000EB800240F2C401C2F2000101EBF6
:1006F0008200407811F82210029A01F069F803E0B4
:1007000001208DF80700FFE79DF8070004B080BDC9
:1007100080B5C4B04390429101A800904FF482711B
:10072000FFF77EFE009804304399FF22FFF79FFEFB
:100730004298019001BE012044B080BD80B582B0D6
:1007400000208DF807008DF80700FFE79DF80700EF
:10075000072835DCFFE744F21440C4F200000068CB
:100760009DF80710C840C00710B3FFE79DF80710B9
:10077000012000FA01F244F21C41C4F200010868B1
:10078000104308609DF8071040F2D420C2F2000028
:1007900050F8210050B1FFE79DF8071040F2D42037
:1007A000C2F2000050F82100804700E0FFE707E0B8
:1007B000FFE7FFE79DF8070001308DF80700C5E768
:1007C00002B080BD80B582B000208DF807008DF8A2
:1007D0000700FFE79DF80700072837DCFFE745F231
:1007E0001440C4F2000000689DF80710C840C0071C
:1007F00020B3FFE79DF80710012000FA01F245F24F
:100800001C41C4F200010868104308609DF80710FD
:1008100040F2D420C2F2000000EB8100006A58B11F
:10082000FFE79DF8071040F2D420C2F2000000EB71
:100830008100006A804700E0FFE707E0FFE7FFE78D
:100840009DF8070001308DF80700C3E702B080BDB6
:1008500080B582B000208DF807008DF80700FFE713
:100860009DF80700072837DCFFE746F21440C4F282
:10087000000000689DF80710C840C00720B3FFE7DC
:100880009DF80710012000FA01F246F21C41C4F263
:1008900000010868104308609DF8071040F2D4205A
:1008A000C2F2000000EB8100006C58B1FFE79DF838
:1008B000071040F2D420C2F2000000EB8100006C6F
:1008C000804700E0FFE707E0FFE7FFE79DF807004C
:1008D00001308DF80700C3E702B080BD80B582B05B
:1008E00000208DF807008DF80700FFE79DF807004E
:1008F000072837DCFFE747F21440C4F20000006825
:100900009DF80710C840C00720B3FFE79DF8071007
:10091000012000FA01F247F21C41C4F2000108680C
:10092000104308609DF8071040F2D420C2F2000086
:1009300000EB8100006E58B1FFE79DF8071040F210
:10094000D420C2F2000000EB8100006E804700E07E
:10095000FFE707E0FFE7FFE79DF8070001308DF8AC
:100960000700C3E702B080BD80B582B000208DF8DB
:1009700007008DF80700FFE79DF80700072839DC1E
:10098000FFE744F21440C4F2020000689DF807102B
:10099000C840C00730B3FFE79DF80710012000FAF8
:1009A00001F244F21C41C4F20201086810430860DD
:1009B0009DF8071040F2D420C2F2000000EB810045
:1009C000D0F8800060B1FFE79DF8071040F2D42016
:1009D000C2F2000000EB8100D0F88000804700E008
:1009E000FFE707E0FFE7FFE79DF8070001308DF81C
:1009F0000700C1E702B080BD80B582B000208DF84D
:100A000007008DF80700FFE79DF80700072839DC8D
:100A1000FFE745F21440C4F2020000689DF8071099
:100A2000C840C00730B3FFE79DF80710012000FA67
:100A300001F245F21C41C4F202010868104308604B
:100A40009DF8071040F2D420C2F2000000EB8100B4
:100A5000D0F8A00060B1FFE79DF8071040F2D42065
:100A6000C2F2000000EB8100D0F8A000804700E057
:100A7000FFE707E0FFE7FFE79DF8070001308DF88B
:100A80000700C1E702B080BD80B584B08DF80F00CB
:100A90008DF80E1000208DF80D009DF80F00052830
:100AA00000F38780FFE79DF80F1040F2C720C2F2E5
:100AB0000000405C012840F07780FFE79DF80E00C1
:100AC00007286CDCFFE79DF80E100120884002909B
:100AD0009DF80F00032808DCFFE79DF80F104FF08A
:100AE000402000EB0130019008E09DF80F1000203D
:100AF000C4F2020000EB01300190FFE7029A019975
:100B0000D1F810041043C1F810049DF80F1040F202
:100B1000C120C2F20000405C00283ED1FFE79DF8F2
:100B20000F000146009105281DD80099DFE801F06B
:100B300003070B0F1317002001F07EFF14E00120C4
:100B400001F07AFF10E0022001F076FF0CE00320B4
:100B500001F072FF08E0042001F06EFF04E01E20A7
:100B600001F06AFF00E0FFE79DF80F2040F2C1218D
:100B7000C2F200010120885440F2C020C2F20000FD
:100B8000007840B9FFE762B640F2C021C2F200012E
:100B90000120087000E0FFE700E0FFE703E003202A
:100BA0008DF80D00FFE703E00B208DF80D00FFE747
:100BB00003E002208DF80D00FFE79DF80D0004B062
:100BC00080BD000080B5CEB04D9000208DF833017F
:100BD0004D9828B9FFE701208DF8330100F09BBD47
:100BE0004D984078052800F39185FFE74D984178AE
:100BF00040F2C720C2F20000405C00284BD1FFE762
:100C00004D984178012000FA01F34EF20862C4F2D7
:100C10000F021168194311604D994A7840F2C721BB
:100C2000C2F2000188544D984078032808DCFFE7A1
:100C30004D9841784FF0402000EB01304B9008E098
:100C40004D9841780020C4F2020000EB01304B9037
:100C5000FFE74B9944F24B30C4F64F40C1F82005F2
:100C60004D984078032808DCFFE74D9841784FF015
:100C7000402000EB01304A9008E04D984178002078
:100C8000C4F2020000EB01304A90FFE74A99FF20CE
:100C9000C1F8240500E0FFE74D980078072800F32D
:100CA0003085FFE74D9800790146499120B1FFE773
:100CB0004998012823D044E04D98027840780121DA
:100CC0009140C9434891032808DCFFE74D984178DB
:100CD0004FF0402000EB0130479008E04D984178FC
:100CE0000020C4F2020000EB01304790FFE7489A71
:100CF0004799D1F820041040C1F8200425E04D9810
:100D000002784078012191404691032808DCFFE7F2
:100D10004D9841784FF0402000EB0130459008E0BD
:100D20004D9841780020C4F2020000EB013045905C
:100D3000FFE7469A4599D1F820041043C1F82004F2
:100D400003E006208DF83301FFE74D98C078014697
:100D5000449120B1FFE74498012844D087E04D98A2
:100D60000278407801219140C9434391032808DC6F
:100D7000FFE74D9841784FF0402000EB0130429062
:100D800008E04D9841780020C4F2020000EB0130E9
:100D90004290FFE7439A4299D1F828051040C1F8E4
:100DA00028054D980278407801219140419103280F
:100DB00008DCFFE74D9841784FF0402000EB013010
:100DC000409008E04D9841780020C4F2020000EB0A
:100DD00001304090FFE7419A4099D1F81C0510433B
:100DE000C1F81C0547E04D980278407801219140F8
:100DF000C9433F91032808DCFFE74D9841784FF045
:100E0000402000EB01303E9008E04D9841780020F2
:100E1000C4F2020000EB01303E90FFE73F9A3E999A
:100E2000D1F81C051040C1F81C054D980278407897
:100E3000012191403D91032808DCFFE74D9841785E
:100E40004FF0402000EB01303C9008E04D98417895
:100E50000020C4F2020000EB01303C90FFE73D9A15
:100E60003C99D1F828051043C1F8280503E0052076
:100E70008DF83301FFE74D98807801463B910028BB
:100E800000F0F380FFE73B98012840F03584FFE74E
:100E90004D9802784078012191403A91032808DC6E
:100EA000FFE74D9841784FF0402000EB013039903A
:100EB00008E04D9841780020C4F2020000EB0130B8
:100EC0003990FFE73A9A3999D1F800041043C1F8F4
:100ED00000044D9840790146389130B3FFE73898C7
:100EE000012845D1FFE74D980278407801219140D3
:100EF0003791032808DCFFE74D9841784FF04020F8
:100F000000EB0130369008E04D9841780020C4F2A3
:100F1000020000EB01303690FFE7379A3699D1F89E
:100F2000FC031043C1F8FC0326E04D98027840789A
:100F300001219140C9433591032808DCFFE74D9812
:100F400041784FF0402000EB0130349008E04D989C
:100F500041780020C4F2020000EB01303490FFE73A
:100F6000359A3499D1F8FC031040C1F8FC0303E032
:100F700009208DF83301FFE74D98807901463391C0
:100F800040B1FFE73398012826D0FFE733980228C5
:100F900044D065E04D98027840780121914032912B
:100FA000032808DCFFE74D9841784FF0402000EB24
:100FB0000130319008E04D9841780020C4F20200E1
:100FC00000EB01303190FFE7329A3199D1F80005FA
:100FD0001043C1F8000547E04D98027840780121A0
:100FE00091403091032808DCFFE74D9841784FF09D
:100FF000402000EB01302F9008E04D984178002010
:10100000C4F2020000EB01302F90FFE7309A2F99D5
:10101000D1F804051043C1F8040525E04D98027885
:101020004078012191402E91032808DCFFE74D987C
:1010300041784FF0402000EB01302D9008E04D98B2
:1010400041780020C4F2020000EB01302D90FFE750
:101050002E9A2D99D1F808051043C1F8080503E030
:1010600007208DF83301FFE74AE34D980278407876
:1010700001219140C9432C91032808DCFFE74D98DA
:1010800041784FF0402000EB01302B9008E04D9864
:1010900041780020C4F2020000EB01302B90FFE702
:1010A0002C9A2B99D1F800041040C1F800044D98F7
:1010B000C07901462A91002800F0D580FFE72A98E0
:1010C000012804D0FFE72A98022866D031E14D9824
:1010D0000278407801219140C9432991032808DC16
:1010E000FFE74D9841784FF0402000EB0130289009
:1010F00008E04D9841780020C4F2020000EB013076
:101100002890FFE7299A2899D1F80C051040C1F8DA
:101110000C054D980278407801219140C9432791F0
:10112000032808DCFFE74D9841784FF0402000EBA2
:101130000130269008E04D9841780020C4F202006A
:1011400000EB01302690FFE7279A2699D1F8140585
:101150001040C1F814054D98027840780121914063
:101160002591032808DCFFE74D9841784FF0402097
:1011700000EB0130249008E04D9841780020C4F243
:10118000020000EB01302490FFE7259A2499D1F862
:1011900010051043C1F81005CFE04D980278407853
:1011A00001219140C9432391032808DCFFE74D98B2
:1011B00041784FF0402000EB0130229008E04D983C
:1011C00041780020C4F2020000EB01302290FFE7DA
:1011D000239A2299D1F80C051040C1F80C054D98BE
:1011E0000278407801219140C9432191032808DC0D
:1011F000FFE74D9841784FF0402000EB0130209000
:1012000008E04D9841780020C4F2020000EB013064
:101210002090FFE7219A2099D1F810051040C1F8DD
:1012200010054D9802784078012191401F910328C4
:1012300008DCFFE74D9841784FF0402000EB01308B
:101240001E9008E04D9841780020C4F2020000EBA7
:1012500001301E90FFE71F9A1E99D1F81405104324
:10126000C1F8140569E04D98027840780121914059
:10127000C9431D91032808DCFFE74D9841784FF0E2
:10128000402000EB01301C9008E04D984178002090
:10129000C4F2020000EB01301C90FFE71D9A1C997C
:1012A000D1F814051040C1F814054D980278407823
:1012B00001219140C9431B91032808DCFFE74D98A9
:1012C00041784FF0402000EB01301A9008E04D9833
:1012D00041780020C4F2020000EB01301A90FFE7D1
:1012E0001B9A1A99D1F810051040C1F810054D98B5
:1012F00002784078012191401991032808DCFFE72A
:101300004D9841784FF0402000EB0130189008E0F4
:101310004D9841780020C4F2020000EB0130189093
:10132000FFE7199A1899D1F80C051043C1F80C057C
:1013300003E008208DF83301FFE74D98007A01287B
:1013400040F0D881FFE74D98C06820B1FFE70C203E
:101350008DF83301CDE14D98407A042800F3BF8128
:10136000FFE74D980278407801219140C9431791D9
:10137000032808DCFFE74D9841784FF0402000EB50
:101380000130169008E04D9841780020C4F2020028
:1013900000EB01301690FFE7179A1699D1F8100468
:1013A0001040C1F810044D99C8680A784B7840F293
:1013B000D421C2F2000101EB431141F822004D9803
:1013C000407A022800F3DA80FFE74D9802784078EF
:1013D00001219140C9431591032808DCFFE74D988E
:1013E00041784FF0402000EB0130149008E04D9818
:1013F00041780020C4F2020000EB01301490FFE7B6
:10140000159A1499D1F804041040C1F804044D98B9
:10141000407A022822D1FFE74D98027840780121D6
:1014200091401391032808DCFFE74D9841784FF075
:10143000402000EB0130129008E04D9841780020E8
:10144000C4F2020000EB01301290FFE7139A1299E8
:10145000D1F808041043C1F808048EE04D98407A92
:10146000002845D1FFE74D9802784078012191404E
:10147000C9431191032808DCFFE74D9841784FF0EC
:10148000402000EB0130109008E04D98417800209A
:10149000C4F2020000EB01301090FFE7119A10999E
:1014A000D1F808041040C1F808044D98027840783B
:1014B00001219140C9430F91032808DCFFE74D98B3
:1014C00041784FF0402000EB01300E9008E04D983D
:1014D00041780020C4F2020000EB01300E90FFE7DB
:1014E0000F9A0E99D1F80C041040C1F80C0443E097
:1014F0004D980278407801219140C9430D9103280D
:1015000008DCFFE74D9841784FF0402000EB0130B8
:101510000C9008E04D9841780020C4F2020000EBE6
:1015200001300C90FFE70D9A0C99D1F80804104097
:10153000C1F808044D9802784078012191400B9140
:10154000032808DCFFE74D9841784FF0402000EB7E
:1015500001300A9008E04D9841780020C4F2020062
:1015600000EB01300A90FFE70B9A0A99D1F80C04BE
:101570001043C1F80C04FFE7FFE7AFE04D98027895
:101580004078012191400991032808DCFFE74D983C
:1015900041784FF0402000EB0130089008E04D9872
:1015A00041780020C4F2020000EB01300890FFE710
:1015B000099A0899D1F804041043C1F804044D981D
:1015C000407A032845D1FFE74D9802784078012101
:1015D0009140C9430791032808DCFFE74D98417803
:1015E0004FF0402000EB0130069008E04D98417824
:1015F0000020C4F2020000EB01300690FFE7079ADA
:101600000699D1F808041040C1F808044D980278F2
:10161000407801219140C9430591032808DCFFE788
:101620004D9841784FF0402000EB0130049008E0E5
:101630004D9841780020C4F2020000EB0130049084
:10164000FFE7059A0499D1F80C041040C1F80C0486
:1016500043E04D980278407801219140C9430391BD
:10166000032808DCFFE74D9841784FF0402000EB5D
:101670000130029008E04D9841780020C4F2020049
:1016800000EB01300290FFE7039A0299D1F80804B9
:101690001040C1F808044D9802784078012191402B
:1016A0000191032808DCFFE74D9841784FF0402076
:1016B00000EB0130009008E04D9841780020C4F222
:1016C000020000EB01300090FFE7019A0099D1F889
:1016D0000C041043C1F80C04FFE7FFE703E00A2005
:1016E0008DF83301FFE74D9801784078FFF7CCF98A
:1016F000FFE700E0FFE703E004208DF83301FFE798
:1017000003E003208DF83301FFE703E002208DF8AA
:101710003301FFE7FFE79DF833014EB080BD0000C5
:1017200084B08DF80F008DF80E10029200208DF815
:1017300007009DF80F00052842DCFFE79DF80F1019
:1017400040F2C720C2F20000405C012833D1FFE71D
:101750009DF80E00072829DCFFE7029808B3FFE791
:101760009DF80F00032808DCFFE79DF80F104FF0ED
:10177000402000EB0130009008E09DF80F100020A1
:10178000C4F2020000EB01300090FFE70098D0F8AF
:10179000FC039DF80E10C84000F00100029908708B
:1017A00003E001208DF80700FFE703E003208DF838
:1017B0000700FFE703E00B208DF80700FFE703E0D9
:1017C00002208DF80700FFE79DF8070004B070477E
:1017D00083B08DF80B008DF80A10019200208DF86F
:1017E00003008DF802009DF80B00052827DCFFE7B9
:1017F0009DF80B1040F2C720C2F20000405C0128A7
:1018000018D1FFE79DF80A0007280EDCFFE70198D2
:101810009DF80B2040F2D421C2F2000101EB4211ED
:101820009DF80A2041F8220003E003208DF8030010
:10183000FFE703E00B208DF80300FFE703E0022041
:101840008DF80300FFE79DF8030003B07047000028
:1018500085B08DF813008DF812108DF8112000203E
:101860008DF810009DF8130005286FDCFFE79DF848
:10187000131040F2C720C2F20000405C012860D182
:10188000FFE79DF81200072856DCFFE79DF81100DE
:10189000012823D1FFE79DF8121001208840039012
:1018A0009DF81300032808DCFFE79DF813104FF0A4
:1018B000402000EB0130029008E09DF8131000205A
:1018C000C4F2020000EB01300290FFE7039A029994
:1018D000D1F8FC031043C1F8FC032CE09DF8110083
:1018E00020BBFFE79DF8121001208840C043019003
:1018F0009DF81300032808DCFFE79DF813104FF054
:10190000402000EB0130009008E09DF8131000200B
:10191000C4F2020000EB01300090FFE7019A009949
:10192000D1F8FC031040C1F8FC0303E009208DF856
:101930001000FFE7FFE703E003208DF81000FFE74A
:1019400003E00B208DF81000FFE703E002208DF884
:101950001000FFE79DF8100005B0704780B58CB00F
:101960008DF82F000A91FFE79DF82F000C2808DB67
:10197000FFE742F63040C0F200003B2101F08CF856
:10198000FFE7FFE79DF82F0005280DDCFFE79DF836
:101990002F10012000FA01F24EF20461C4F20F018F
:1019A0000868104308600DE09DF82F00811F01209A
:1019B00000FA01F24EF25C61C4F20F0108681043B4
:1019C0000860FFE700BF00BF00BF9DF82F00072899
:1019D00009DCFFE79DF82F100020C4F2030000EBA4
:1019E0000130099009E09DF82F1044F20000C4F284
:1019F000040000EB01300990FFE70999C86820F066
:101A00000100C8609DF82F00072809DCFFE79DF85A
:101A10002F100020C4F2030000EB0130089009E011
:101A20009DF82F1044F20000C4F2040000EB0130D6
:101A30000890FFE70899C86820F48070C8609DF896
:101A40002B0007909DF82F00072809DCFFE79DF881
:101A50002F100020C4F2030000EB0130069009E0D3
:101A60009DF82F1044F20000C4F2040000EB013096
:101A70000690FFE70798069908609DF82F00072851
:101A800009DCFFE79DF82F100020C4F2030000EBF3
:101A90000130059009E09DF82F1044F20000C4F2D7
:101AA000040000EB01300590FFE705990020486035
:101AB0009DF82F00072809DCFFE79DF82F10002074
:101AC000C4F2030000EB0130049009E09DF82F10F0
:101AD00044F20000C4F2040000EB01300490FFE780
:101AE0000499002088609DF8280003909DF82F003D
:101AF000072809DCFFE79DF82F100020C4F203003F
:101B000000EB0130029009E09DF82F1044F2000034
:101B1000C4F2040000EB01300290FFE7039A02993F
:101B20004868104348609DF82B004007002821D5E5
:101B3000FFE79DF8290001909DF82F00072809DC98
:101B4000FFE79DF82F100020C4F2030000EB0130E6
:101B5000009009E09DF82F1044F20000C4F2040048
:101B600000EB01300090FFE7019A0099886810436C
:101B70008860FFE700200CB080BD000080B588B011
:101B80008DF81F0006918DF81720FFE79DF81F00C4
:101B90000C2808DBFFE742F63040C0F20000642169
:101BA00000F07AFFFFE7FFE7FFE70698FF2813D072
:101BB000FFE70698B0F57F4F0ED0FFE706984FF687
:101BC000FF71884208D0FFE742F63040C0F20000C3
:101BD000652100F061FFFFE7FFE7069800F00900CC
:101BE00006909DF81700012820D1FFE70698049081
:101BF0009DF81F00072809DCFFE79DF81F10002053
:101C0000C4F2030000EB0130039009E09DF81F10BF
:101C100044F20000C4F2040000EB01300390FFE73F
:101C2000049A0399C8681043C86020E00698C0432E
:101C300002909DF81F00072809DCFFE79DF81F10A0
:101C40000020C4F2030000EB0130019009E09DF890
:101C50001F1044F20000C4F2040000EB01300190B8
:101C6000FFE7029A0199C8681040C860FFE70020AA
:101C700008B080BD80B584B08DF80F000291FFE7F9
:101C80009DF80F000C2808DBFFE742F63040C0F259
:101C90000000782100F000FFFFE7FFE7FFE7029870
:101CA000FF2813D0FFE70298B0F57F4F0ED0FFE773
:101CB00002984FF6FF71884208D0FFE742F63040A5
:101CC000C0F20000792100F0E7FEFFE7FFE702988D
:101CD00020F0080002900298C04301909DF80F0088
:101CE000072809DCFFE79DF80F100020C4F203006D
:101CF00000EB0130009009E09DF80F1044F2000065
:101D0000C4F2040000EB01300090FFE7019A009953
:101D1000C8681040C860002004B080BD80B584B0A1
:101D20008DF80F000291FFE79DF80F000C2808DBEB
:101D3000FFE742F63040C0F20000852100F0ACFE23
:101D4000FFE7FFE7FFE70298FF2813D0FFE70298BD
:101D5000B0F57F4F0ED0FFE702984FF6FF71884233
:101D600008D0FFE742F63040C0F20000862100F0C4
:101D700093FEFFE7FFE7029840F008000290029808
:101D800001909DF80F00072809DCFFE79DF80F1070
:101D90000020C4F2030000EB0130009009E09DF840
:101DA0000F1044F20000C4F2040000EB0130009078
:101DB000FFE7019A0099C8681043C860002004B08A
:101DC00080BD000082B08DF8060000910098FF28C9
:101DD0000BD1FFE79DF8061042F60040C0F200006C
:101DE00050F821008DF807000BE09DF8061042F630
:101DF0000040C0F2000050F8210001308DF80700CB
:101E0000FFE79DF8070002B07047000080B584B07E
:101E10008DF80F000291FFE79DF80F000C2809DBF9
:101E2000FFE742F63040C0F200004FF4AF7100F01F
:101E300033FEFFE7FFE7029801909DF80F000728A7
:101E400009DCFFE79DF80F100020C4F2030000EB4F
:101E50000130009009E09DF80F1044F20000C4F238
:101E6000040000EB01300090FFE701980099486200
:101E7000002004B080BD000080B584B08DF80F0054
:101E80000291FFE79DF80F000C2809DBFFE742F6FF
:101E90003040C0F200004FF4B97100F0FDFDFFE7E3
:101EA000FFE7029801909DF80F00072809DCFFE783
:101EB0009DF80F100020C4F2030000EB01300090E9
:101EC00009E09DF80F1044F20000C4F2040000EB9A
:101ED00001300090FFE7019A0099886910438861FA
:101EE000002004B080BD000080B584B08DF80E00E5
:101EF00002910192FFE79DF80E000C2809DBFFE735
:101F000042F63040C0F2000040F27F1100F0C4FD04
:101F1000FFE7FFE7FFE70298FF280ED0FFE70298F0
:101F2000B0F57F4F09D0FFE742F63040C0F2000025
:101F30004FF4C07100F0B0FDFFE7FFE7FFE7019845
:101F400048B9FFE742F63040C0F2000040F281118C
:101F500000F0A2FDFFE7FFE70298FF3818BF01205D
:101F60008DF802009DF80E1040F25010C2F20000F1
:101F700000EBC1009DF8021050F8210020B1FFE7EE
:101F8000FF208DF80F001CE001989DF80E2040F214
:101F90005011C2F2000101EBC2019DF8022041F88C
:101FA00022009DF80E000299FFF70CFF8DF8030048
:101FB0009DF8030000F058FD62B600208DF80F0078
:101FC000FFE79DF90F0004B080BD000080B584B02C
:101FD0008DF80F000291FFE79DF80F000C2809DB38
:101FE000FFE742F63040C0F2000040F2AB1100F0D3
:101FF00053FDFFE7FFE79DF80F00072809DCFFE727
:102000009DF80F100020C4F2030000EB0130019096
:1020100009E09DF80F1044F20000C4F2040000EB48
:1020200001300190FFE70198006A0299084004B06E
:1020300080BD000080B584B08DF80F000291029839
:10204000FF3818BF01208DF807009DF80F1040F2EF
:102050005010C2F2000000EBC1009DF8071050F8CC
:10206000210070B1FFE79DF80F1040F25010C2F24E
:10207000000000EBC1009DF8071050F821008047D8
:10208000FFE704B080BD000080B586B08DF8170072
:102090000491FFE79DF817000C2808DBFFE742F6E4
:1020A0003040C0F20000AF2100F0F6FCFFE7FFE790
:1020B000FFE70498FF280DD0FFE70498B0F57F4FA5
:1020C00008D0FFE742F63040C0F20000B02100F037
:1020D000E3FCFFE7FFE70498FF281CD1FFE79DF82A
:1020E0001700072809DCFFE79DF817100020C4F24D
:1020F000030000EB0130039009E09DF8171044F253
:102100000000C4F2040000EB01300390FFE70398E5
:10211000806A02901BE09DF81700072809DCFFE7A2
:102120009DF817100020C4F2030000EB013001906D
:1021300009E09DF8171044F20000C4F2040000EB1F
:1021400001300190FFE70198C06A0290FFE7029812
:1021500006B080BD80B588B08DF81F00069105924D
:10216000FFE79DF81F000C2808DBFFE742F6304030
:10217000C0F20000922100F08FFCFFE7FFE7FFE7CD
:102180000698FF280DD0FFE70698B0F57F4F08D0DE
:10219000FFE742F63040C0F20000932100F07CFCE3
:1021A000FFE7FFE70698FF281ED1FFE70598049098
:1021B0009DF81F00072809DCFFE79DF81F1000208D
:1021C000C4F2030000EB0130039009E09DF81F10FA
:1021D00044F20000C4F2040000EB01300390FFE77A
:1021E0000498039988621DE0059802909DF81F00ED
:1021F000072809DCFFE79DF81F100020C4F2030048
:1022000000EB0130019009E09DF81F1044F200003E
:10221000C4F2040000EB01300190FFE7029801993D
:10222000C862FFE7002008B080BD000080B588B01C
:102230008DF81F0006910592FFE79DF81F000C28FE
:1022400008DBFFE742F63040C0F20000C92100F091
:1022500023FCFFE7FFE7FFE70698FF280DD0FFE725
:102260000698B0F57F4F08D0FFE742F63040C0F245
:102270000000CA2100F010FCFFE7FFE70698FF28E6
:102280001ED1FFE7059804909DF81F00072809DC80
:10229000FFE79DF81F100020C4F2030000EB01309F
:1022A000039009E09DF81F1044F20000C4F20400FE
:1022B00000EB01300390FFE70498039908631DE0E9
:1022C000059802909DF81F00072809DCFFE79DF89C
:1022D0001F100020C4F2030000EB0130019009E060
:1022E0009DF81F1044F20000C4F2040000EB01301E
:1022F0000190FFE7029801994863FFE7002008B0CA
:1023000080BD000080B586B08DF817008DF81610DE
:1023100000208DF815008DF814009DF81700052891
:102320002EDCFFE79DF81600072829DCFFE79DF863
:1023300017008DF805009DF816008DF804000220A6
:102340008DF80A0001208DF80B008DF806000020A2
:102350008DF809008DF807008DF8080001A8FEF738
:1023600031FC8DF814009DF8140020B9FFE700201F
:102370008DF8150003E001208DF81500FFE703E05C
:1023800001208DF81500FFE79DF8150006B080BD0F
:1023900080B582B08DF807008DF8061000208DF80A
:1023A00005008DF804009DF8070005281BDCFFE7F9
:1023B0009DF80600072816DCFFE79DF807009DF84A
:1023C00006100022FFF744FA8DF804009DF804007F
:1023D00020B9FFE700208DF8050003E001208DF80B
:1023E0000500FFE703E001208DF80500FFE79DF8F9
:1023F000050002B080BD000080B5002000F0E4F8C8
:1024000080BD000080B5012000F0DEF880BD000036
:1024100080B5022000F0D8F880BD000080B5032010
:1024200000F0D2F880BD000080B5042000F0CCF8A8
:1024300080BD000080B5052000F0C6F880BD00001A
:1024400080B5062000F0C0F880BD000080B50720F0
:1024500000F0BAF880BD000080B5082000F0B4F8A4
:1024600080BD000080B5092000F0AEF880BD0000FE
:1024700080B50A2000F0A8F880BD000080B50B20D0
:1024800000F0A2F880BD000083B002908DF8071024
:102490009DF80700C0F164000299484348F21F51BB
:1024A000C5F2EB11A0FB011040090090009803B0A9
:1024B0007047000082B0019040F2C000C2F20000FC
:1024C00000680199B0FBF1F00090009802B07047ED
:1024D00080B588B00690069820B9FFE7FF208DF8F8
:1024E0001F006DE0069800F03BF920B9FFE7FF20E0
:1024F0008DF81F0064E00698017840F20000C2F2F7
:10250000000000EB011005900698407805990873CB
:10251000069880780599487305984068FF2813D17C
:10252000FFE7059800782221C0F20041FFF716FA74
:102530000598007811210291FFF768FC029905982F
:102540000078FFF799FC14E00598007842F200212A
:10255000C0F20041FFF702FA059800784FF41061CD
:102560000191FFF753FC019905980078FFF784FC6F
:10257000FFE70599087849680122FFF7FFFA0698F6
:102580004068FFF797FF0490059908784968049A16
:10259000FFF7E0FD04980699097AFFF775FF0390AD
:1025A000059908784968039AFFF740FE059A107864
:1025B00051689268FFF798FC00208DF81F00FFE734
:1025C0009DF91F0008B080BD80B584B08DF80F0064
:1025D0009DF80F1040F20000C2F2000000EB011065
:1025E000029002984068FF2807D1FFE70298007820
:1025F0001121FFF7EBFC019007E0029800784FF4FF
:102600001061FFF7E3FC0190FFE702980078019961
:10261000FFF7FCFB9DF80400C00728B9FFE79DF811
:102620000500C00738B1FFE70299087B497B01220A
:10263000FFF70EF9FFE79DF80400C006002806D456
:10264000FFE79DF805000007002807D5FFE702997E
:10265000087B497B0022FFF7FBF8FFE704B080BD51
:1026600080B586B08DF816008DF815109DF816000F
:102670000C2804DBFFE7FF208DF8170028E0FF207F
:102680008DF807009DF8161040F20000C2F200001D
:1026900000EB01100490049908784968FFF7F4FCF6
:1026A000039003989DF81510FFF7EEFE0290049931
:1026B00008784968029AFFF7B9FD20B9FFE70020C2
:1026C0008DF80700FFE79DF807008DF81700FFE77A
:1026D0009DF9170006B080BD80B582B08DF8060068
:1026E0009DF806000C2804DBFFE7FF208DF80700AB
:1026F00010E09DF8061040F20000C2F2000000EB6E
:1027000001100090009908784968FFF707FB8DF8E1
:102710000700FFE79DF9070002B080BD80B582B0D9
:102720008DF806009DF806000C2804DBFFE7FF206B
:102730008DF8070010E09DF8061040F20000C2F28C
:10274000000000EB01100090009908784968FFF73D
:1027500091FA8DF80700FFE79DF9070002B080BDF0
:1027600082B0019001208DF80300019800780C28B8
:1027700004DBFFE700208DF80300FFE70198007AF3
:10278000652804DBFFE700208DF80300FFE79DF8D4
:10279000030002B07047000080B54EF21000CEF288
:1027A0000000006840F2D020C2F20000006818B1BA
:1027B000FFE7002080B908E042F64840C0F2000080
:1027C0009E21FDF7A5FF38B9FFE740F2D020C2F205
:1027D000000000688047FFE780BD000081B04EF632
:1027E0008851CEF20001086840F4700008604EF293
:1027F0007001C4F20F0142F61000C0F28070086050
:102800004EF26002C4F20F0243F6D120C0F28E7085
:10281000106042F64250C0F29E10106042F6000076
:10282000C0F28010086000200090FFE70098C00808
:102830007C2805D8FFE7FFE7009801300090F5E716
:102840004EF26001C4F20F0140F64250C0F29E10F9
:1028500008604EF27001C4F20F0140F60000C0F2B1
:102860008010086000200090FFE70098C0087C28D6
:1028700005D8FFE7FFE7009801300090F5E74EF23A
:102880006001C4F20F0140F64250C0F2DE10086051
:10289000FFE74EF25000C4F20F00006800F0400065
:1028A000402801D0FFE7F4E74EF26001C4F20F01C7
:1028B00040F24250C0F2DE1008604EF27001C4F2E5
:1028C0000F014FF0C070086000200090FFE70098F3
:1028D00042F20F71884205D8FFE7FFE70098013008
:1028E0000090F4E701B0704780B50020FF21FFF7AA
:1028F000A1FB80BD80B500204FF47F41FFF79AFB1C
:1029000080BD000080B50120FF21FFF793FB80BD53
:1029100080B501204FF47F41FFF78CFB80BD0000A4
:1029200080B50220FF21FFF785FB80BD80B5022026
:102930004FF47F41FFF77EFB80BD000080B5032090
:10294000FF21FFF777FB80BD80B503204FF47F4167
:10295000FFF770FB80BD000080B50420FF21FFF76A
:1029600069FB80BD80B504204FF47F41FFF762FB17
:1029700080BD000080B50520FF21FFF75BFB80BD17
:1029800080B505204FF47F41FFF754FB80BD000068
:1029900080B50620FF21FFF74DFB80BD80B50620E6
:1029A0004FF47F41FFF746FB80BD000080B5072054
:1029B000FF21FFF73FFB80BD80B507204FF47F412B
:1029C000FFF738FB80BD000080B50820FF21FFF72E
:1029D00031FB80BD80B508204FF47F41FFF72AFB13
:1029E00080BD000080B50920FF21FFF723FB80BDDB
:1029F00080B509204FF47F41FFF71CFB80BD00002C
:102A000080B50A20FF21FFF715FB80BD80B50A20A5
:102A10004FF47F41FFF70EFB80BD000080B50B2017
:102A2000FF21FFF707FB80BD80B50B204FF47F41EE
:102A3000FFF700FB80BD000081B0ADF80200BDF9DA
:102A4000020000280ED4FFE7BDF9021001F01F02BA
:102A5000012090404A094EF20011CEF2000141F8E7
:102A60002200FFE701B0704781B0ADF80200BDF968
:102A7000020000280ED4FFE7BDF9021001F01F028A
:102A8000012090404A094EF20011CEF2000141F8B7
:102A90002200FFE701B0704780B584B00390029137
:102AA000039940F2B410C2F2000001900C304FF4D0
:102AB0008072FDF7DCFC01990298886001BE04B0C9
:102AC00080BD000080B584B0002200928DF8042003
:102AD00005208DF8050003218DF806104FF47A7358
:102AE00002938DF80C20FFF70DFCFDF74BFD0098CD
:102AF00042F6B931C0F20001FDF7E4FD01A8FFF78D
:102B0000E7FC0098FFF70AFE04B080BD80B584B0F2
:102B100040F2CD20C2F200000078012840D1FFE74A
:102B200040F2CD21C2F200010020087040F2B01046
:102B3000C2F20000017801310170007801380146CD
:102B40000391032824D80399DFE801F0020B101544
:102B500000200290FFF7C0FD02981E21FFF780FDC4
:102B60001DE000203C21FFF77BFD18E000205A21EA
:102B7000FFF776FD13E0002101910846FFF770FD95
:102B80000198FFF7CBFD05200321FFF701FC06E0CC
:102B900040F2B011C2F2000100200870FFE7FFE729
:102BA00004B080BD80B582B000200190FFF78AFF9D
:102BB000FFE7FFF7ABFFFCE780B582B000200DF127
:102BC0000701FDF723FD60B9FFE79DF8070038B95D
:102BD000FFE740F2CD21C2F2000101200870FFE7BB
:102BE000FFE702B080BDF1EE100A4FF6FF71C0F2B0
:102BF000C03120EA010040F04070E1EE100A704759
:102C00001300000015000000170000002300000062
:102C1000460000005C0000005E0000006000000054
:102C20006200000064000000660000006800000010
:102C30004D43414C2F4750544D2F4750544D5F64E6
:102C400072697665722E63004D43414C2F53595380
:102C50005449434B2F7379737469636B5F70726F60
:102C60006772616D2E630000882C00000000002058
:102C7000EC000000A8020000742D0000F00000200D
:102C8000A8040000C402000000000000FF000000D3
:102C9000F9230000000000000000000000FF000019
:102CA000052400000000000001000000FF000000FB
:102CB00011240000000000000100000000FF0000DF
:102CC0001D2400000000000002000000FF000000C2
:102CD00029240000000000000200000000FF0000A6
:102CE000352400000000000003000000FF00000089
:102CF00041240000000000000300000000FF00006D
:102D00004D2400000000000004000000FF0000004F
:102D100059240000000000000400000000FF000033
:102D2000652400000000000005000000FF00000016
:102D300071240000000000000500000000FF0000FA
:102D40007D2400000000000080F0FA02040500006D
:102D50000000000101000000000000000000000071
:102D6000000500000000000101000000000000005C
:042D7000010000005E
:040000050000030DE7
:00000001FF
