:020000040000FA
:10000000900200200D0300009B0400001703000075
:10001000190300001B0300001D0300000000000086
:100020000000000000000000000000001F030000AE
:10003000210300000000000023030000250300004E
:1000400027030000290300002B0300002D030000FC
:100050002F030000310300003303000035030000CC
:1000600037030000390300003B0300003D0300009C
:100070003F0300004103000043030000450300006C
:100080004703000049030000390500004D0300004C
:100090004F0300005103000053030000550300000C
:1000A00057030000590300005B0300005D030000DC
:1000B0005F030000610300006303000065030000AC
:1000C00067030000690300006B0300006D0300007C
:1000D0006F0300007103000073030000750300004C
:1000E0007703000079030000000000007B0300009C
:1000F0007D0300007F0300008103000083030000F4
:100100008503000087030000890300008B030000C3
:1001100000000000000000008D0300008F030000BD
:100120009103000093030000950300009703000073
:10013000990300009B0300009D0300009F03000043
:1001400000000000000000000000000000000000AF
:10015000A1030000A3030000A5030000A703000003
:10016000000000000000000000000000000000008F
:10017000000000000000000000000000000000007F
:10018000000000000000000000000000000000006F
:10019000000000000000000000000000000000005F
:1001A000000000000000000000000000000000004F
:1001B000A9030000AB030000AD030000AF03000083
:1001C000B1030000B3030000B5030000B703000053
:1001D000B9030000BB030000BD030000BF03000023
:1001E000C1030000C3030000C503000000000000BD
:1001F00000000000C7030000C9030000CB0300009B
:10020000CD030000CF03000000000000000000004C
:10021000D1030000D3030000D5030000D703000082
:10022000D9030000DB030000DD030000DF03000052
:10023000E1030000E3030000E5030000E703000022
:10024000E9030000EB030000ED030000EF030000F2
:10025000F1030000F3030000F5030000F7030000C2
:10026000F9030000FB030000FD03000000F002F8AA
:1002700000F03CF80AA090E8000C82448344AAF104
:100280000107DA4501D100F031F8AFF2090EBAE802
:100290000F0013F0010F18BFFB1A43F001031847BA
:1002A000F404000014050000103A24BF78C878C197
:1002B000FAD8520724BF30C830C144BF04680C606C
:1002C000704700000023002400250026103A28BFB4
:1002D00078C1FBD8520728BF30C148BF0B607047B8
:1002E0001FB500F051FA1FBD10B510BD00F09BF80E
:1002F0001146FFF7F5FF00F029F900F0B9F803B453
:10030000FFF7F2FF03BC00F0C1F800003F48804750
:100310003F480047FEE7FEE7FEE7FEE7FEE7FEE7B1
:10032000FEE7FEE7FEE7FEE7FEE7FEE7FEE7FEE7A5
:10033000FEE7FEE7FEE7FEE7FEE7FEE7FEE7FEE795
:10034000FEE7FEE7FEE7FEE7FEE7FEE7FEE7FEE785
:10035000FEE7FEE7FEE7FEE7FEE7FEE7FEE7FEE775
:10036000FEE7FEE7FEE7FEE7FEE7FEE7FEE7FEE765
:10037000FEE7FEE7FEE7FEE7FEE7FEE7FEE7FEE755
:10038000FEE7FEE7FEE7FEE7FEE7FEE7FEE7FEE745
:10039000FEE7FEE7FEE7FEE7FEE7FEE7FEE7FEE735
:1003A000FEE7FEE7FEE7FEE7FEE7FEE7FEE7FEE725
:1003B000FEE7FEE7FEE7FEE7FEE7FEE7FEE7FEE715
:1003C000FEE7FEE7FEE7FEE7FEE7FEE7FEE7FEE705
:1003D000FEE7FEE7FEE7FEE7FEE7FEE7FEE7FEE7F5
:1003E000FEE7FEE7FEE7FEE7FEE7FEE7FEE7FEE7E5
:1003F000FEE7FEE7FEE7FEE7FEE7FEE7FEE70000BA
:1004000004480549034A054B70470000A104000059
:100410006D0200009000002090020020900000205B
:10042000704770477047754600F02CF8AE460500DF
:100430006946534620F00700854618B020B5FFF7FF
:10044000DFFFBDE820404FF000064FF000074FF0FF
:1004500000084FF0000B21F00701AC46ACE8C009E2
:10046000ACE8C009ACE8C009ACE8C0098D467047EB
:1004700010B50446AFF300802046BDE81040FFF7FA
:100480003EBF0000004870472C00002001491820A2
:10049000ABBEFEE726000200704700BFFEE700008B
:1004A0001B49096841F47001194A116019491A4A37
:1004B00011671A4911661A4911661A491167002015
:1004C00000E0401CB0F57A7FFBD31749124A116651
:1004D00016491167002000E0401CB0F57A7FFBD37D
:1004E00013490D4A116600BF0B49096D01F0400127
:1004F0004029F9D10F49084A11664FF0C0711167C0
:10050000002000E0401C42F210718842FAD370478C
:1005100088ED00E01028800700E00F40D13A8E07F8
:10052000422D9E0100288001420D9E01000880019D
:10053000420DDE014205DE0110B50348006810B12E
:1005400001480068804710BD0000002000200A49D3
:10055000087041F28830486001200872002048721B
:1005600088720648C860084600F040F802E00120A2
:1005700000F0F8F8FBE700001C000020E90500008F
:1005800010B5E9B102281BDA0E4A12684FF47A73EB
:10059000B2FBF3F24A4300230B4C22606360234614
:1005A0001A685B68094B43F820201A4652F820303D
:1005B00008B9002201E04FF4805202F1804213603A
:1005C00010BD0000180000201000002004000020D2
:1005D000012806D100BF0349896801F000410029C4
:1005E000F9D070470010004000BFFEE770B5044628
:1005F0004FF0FF35002C7DD058480068227801214B
:10060000914008435549086020786168FFF7B8FFBA
:100610002078012802D12078FFF7DAFF607A98B1BC
:10062000207808B9002001E04FF4805000F18040AC
:10063000806840F00201207808B9002001E04FF402
:10064000805000F1804081602078FFF7C1FFA07AE0
:1006500001282ED1207808B9002001E04FF4805005
:1006600000F18040806840F00401207808B9002043
:1006700001E04FF4805000F1804081602078FFF766
:10068000A7FF207808B9002001E04FF4805000F166
:100690008040806840F00101207808B9002001E026
:1006A0004FF4805000F1804081602078FFF790FF88
:1006B0002DE0A07A58BB207808B9002001E04FF463
:1006C000805000F18040806840F00101207808B936
:1006D000002001E04FF4805000F1804081602078DC
:1006E000FFF776FF122000280FDB00BF00BF00F0ED
:1006F0001F0200E02DE0012191404209920002F129
:10070000E022C2F8001100BF00BF00BF62B6207A2D
:10071000C0B1207808B9002001E04FF4805000F10A
:100720008040D0F8180440F48071207808B9002087
:1007300001E04FF4805000F18040C0F81814207898
:10074000FFF746FFE06810B10549E0680860002542
:1007500001E04FF0FF35284670BD000000E60F4075
:1007600000000020074951F8201051B1054951F807
:10077000202008B9002101E04FF4805101F18041AF
:100780000A607047040000204FF04070E1EE100A4C
:1007900070470000B4070000000000201C000000AB
:1007A000A8020000D00700001C0000207402000016
:1007B000C402000000000000000000000000000073
:1007C00000000000000000000000000080F0FA02BD
:040000050000030DE7
:00000001FF
