:020000040000FA
:10000000900200200D0300009B0400001703000075
:10001000190300001B0300001D0300000000000086
:100020000000000000000000000000001F030000AE
:10003000210300000000000023030000250300004E
:1000400027030000290300002B0300002D030000FC
:100050002F030000310300003303000035030000CC
:1000600037030000390300003B0300003D0300009C
:100070003F0300004103000043030000450300006C
:100080004703000049030000590500004D0300002C
:100090004F0300005103000053030000550300000C
:1000A00057030000590300005B0300005D030000DC
:1000B0005F030000610300006303000065030000AC
:1000C00067030000690300006B0300006D0300007C
:1000D0006F0300007103000073030000750300004C
:1000E0007703000079030000000000007B0300009C
:1000F0007D0300007F0300008103000083030000F4
:100100008503000087030000890300008B030000C3
:1001100000000000000000008D0300008F030000BD
:100120009103000093030000950300009703000073
:10013000990300009B0300009D0300009F03000043
:1001400000000000000000000000000000000000AF
:10015000A1030000A3030000A5030000A703000003
:10016000000000000000000000000000000000008F
:10017000000000000000000000000000000000007F
:10018000000000000000000000000000000000006F
:10019000000000000000000000000000000000005F
:1001A000000000000000000000000000000000004F
:1001B000A9030000AB030000AD030000AF03000083
:1001C000B1030000B3030000B5030000B703000053
:1001D000B9030000BB030000BD030000BF03000023
:1001E000C1030000C3030000C503000000000000BD
:1001F00000000000C7030000C9030000CB0300009B
:10020000CD030000CF03000000000000000000004C
:10021000D1030000D3030000D5030000D703000082
:10022000D9030000DB030000DD030000DF03000052
:10023000E1030000E3030000E5030000E703000022
:10024000E9030000EB030000ED030000EF030000F2
:10025000F1030000F3030000F5030000F7030000C2
:10026000F9030000FB030000FD03000000F002F8AA
:1002700000F03CF80AA090E8000C82448344AAF104
:100280000107DA4501D100F031F8AFF2090EBAE802
:100290000F0013F0010F18BFFB1A43F001031847BA
:1002A000EC0400000C050000103A24BF78C878C1A7
:1002B000FAD8520724BF30C830C144BF04680C606C
:1002C000704700000023002400250026103A28BFB4
:1002D00078C1FBD8520728BF30C148BF0B607047B8
:1002E0001FB500F04DFA1FBD10B510BD00F09BF812
:1002F0001146FFF7F5FF00F039F900F0B9F803B443
:10030000FFF7F2FF03BC00F0C1F800003F48804750
:100310003F480047FEE7FEE7FEE7FEE7FEE7FEE7B1
:10032000FEE7FEE7FEE7FEE7FEE7FEE7FEE7FEE7A5
:10033000FEE7FEE7FEE7FEE7FEE7FEE7FEE7FEE795
:10034000FEE7FEE7FEE7FEE7FEE7FEE7FEE7FEE785
:10035000FEE7FEE7FEE7FEE7FEE7FEE7FEE7FEE775
:10036000FEE7FEE7FEE7FEE7FEE7FEE7FEE7FEE765
:10037000FEE7FEE7FEE7FEE7FEE7FEE7FEE7FEE755
:10038000FEE7FEE7FEE7FEE7FEE7FEE7FEE7FEE745
:10039000FEE7FEE7FEE7FEE7FEE7FEE7FEE7FEE735
:1003A000FEE7FEE7FEE7FEE7FEE7FEE7FEE7FEE725
:1003B000FEE7FEE7FEE7FEE7FEE7FEE7FEE7FEE715
:1003C000FEE7FEE7FEE7FEE7FEE7FEE7FEE7FEE705
:1003D000FEE7FEE7FEE7FEE7FEE7FEE7FEE7FEE7F5
:1003E000FEE7FEE7FEE7FEE7FEE7FEE7FEE7FEE7E5
:1003F000FEE7FEE7FEE7FEE7FEE7FEE7FEE70000BA
:1004000004480549034A054B70470000A104000059
:100410006D0200009000002090020020900000205B
:10042000704770477047754600F02CF8AE460500DF
:100430006946534620F00700854618B020B5FFF7FF
:10044000DFFFBDE820404FF000064FF000074FF0FF
:1004500000084FF0000B21F00701AC46ACE8C009E2
:10046000ACE8C009ACE8C009ACE8C0098D467047EB
:1004700010B50446AFF300802046BDE81040FFF7FA
:100480003EBF0000004870472C00002001491820A2
:10049000ABBEFEE726000200704700BFFEE700008B
:1004A00008B5002000902248006840F47000204900
:1004B00008602048204908672048086620480866E8
:1004C000204808670020009002E00098401C00903F
:1004D0000098B0F57A7FF8D31B48174908661B4887
:1004E00008670020009002E00098401C00900098EF
:1004F000B0F57A7FF8D316480F49086600BF0E485A
:10050000006D00F040004028F9D112480A49086601
:100510004FF0C07008670020009002E00098401C77
:10052000009042F2107100988842F7D308BD000095
:1005300088ED00E01028800700E00F40D13A8E07D8
:10054000422D9E0100288001420D9E01000880017D
:10055000420DDE014205DE0110B50348006810B10E
:1005600001480068804710BD0000002000200949B4
:1005700008704FF47A7048600020087201204872B9
:10058000002088720448C860084600F03DF800BFAB
:10059000FEE700001C0000200506000010B5E9B1D0
:1005A00002281BDA0E4A12684FF47A73B2FBF3F298
:1005B0004A4300230B4C2260636023461A685B6841
:1005C000094B43F820201A4652F8203008B900227F
:1005D00001E04FF4805202F18042136010BD000030
:1005E000180000201000002004000020012806D17F
:1005F00000BF0349896801F000410029F9D0704724
:100600000010004000BFFEE770B504464FF0FF3514
:10061000002C7DD058480068227801219140084381
:100620005549086020786168FFF7B8FF20780128F5
:1006300002D12078FFF7DAFF607A98B1207808B904
:10064000002001E04FF4805000F18040806840F0CD
:100650000201207808B9002001E04FF4805000F139
:10066000804081602078FFF7C1FFA07A01282ED159
:10067000207808B9002001E04FF4805000F180405C
:10068000806840F00401207808B9002001E04FF4B0
:10069000805000F1804081602078FFF7A7FF20782C
:1006A00008B9002001E04FF4805000F180408068DC
:1006B00040F00101207808B9002001E04FF480509B
:1006C00000F1804081602078FFF790FF2DE0A07A54
:1006D00058BB207808B9002001E04FF4805000F1A9
:1006E0008040806840F00101207808B9002001E0D6
:1006F0004FF4805000F1804081602078FFF776FF52
:10070000122000280FDB00BF00BF00F01F0200E036
:100710002DE0012191404209920002F1E022C2F84D
:10072000001100BF00BF00BF62B6207AC0B12078C0
:1007300008B9002001E04FF4805000F18040D0F86B
:10074000180440F48071207808B9002001E04FF4CB
:10075000805000F18040C0F818142078FFF746FF61
:10076000E06810B10549E0680860002501E04FF03D
:10077000FF35284670BD000000E60F400000002055
:100780004FF04070E1EE100A70470000AC07000027
:10079000000000201C000000A8020000C8070000A4
:1007A0001C00002074020000C402000000000000D1
:1007B0000000000000000000000000000000000039
:0807C0000000000080F0FA02C5
:040000050000030DE7
:00000001FF
